[INIT] Using local account (private key): 0xBF31f9Bdf04Fbb03A409c0467bAf61a7dB723fc4
[INIT] Waiting for /home/cometbft/data/contract_address.txt...
[INIT] Waiting for /home/cometbft/data/contract_abi.json...
[INIT] API Ready. Contract: 0xa56D38bb39Aab745F91CdEE3D620A4eEF8Fa00a0
API on :3000 Ready
[STATE] Block 23 confirmed.
[STATE] Block 24 confirmed.
[STATE] Block 25 confirmed.
[STATE] Block 26 confirmed.
[STATE] Block 27 confirmed.
[STATE] Block 28 confirmed.
[STATE] Block 29 confirmed.
[STATE] Block 30 confirmed.
[STATE] Block 31 confirmed.
[STATE] Block 32 confirmed.
[TX] Invio (SQL_INJECTION) con nonce 3... (Queue: 0, Active: 1)
[TX] Invio (SQL_INJECTION) con nonce 4... (Queue: 0, Active: 2)
[TX] Invio (SQL_INJECTION) con nonce 5... (Queue: 0, Active: 3)
[TX] Invio (SQL_INJECTION) con nonce 6... (Queue: 0, Active: 4)
[STATE] Block 33 confirmed.
[TX] Errore (nonce: 4): Returned error: invalid nonce; got 4, expected 3: invalid sequence: invalid sequence
/home/cometbft/node_modules/web3-core/lib/commonjs/web3_request_manager.js:281
                throw new web3_errors_1.InvalidResponseError(response, payload);
                      ^

InvalidResponseError: Returned error: invalid nonce; got 4, expected 3: invalid sequence: invalid sequence
    at Web3RequestManager._processJsonRpcResponse (/home/cometbft/node_modules/web3-core/lib/commonjs/web3_request_manager.js:281:23)
    at Web3RequestManager.<anonymous> (/home/cometbft/node_modules/web3-core/lib/commonjs/web3_request_manager.js:167:29)
    at Generator.next (<anonymous>)
    at fulfilled (/home/cometbft/node_modules/web3-core/lib/commonjs/web3_request_manager.js:21:58)
    at process.processTicksAndRejections (node:internal/process/task_queues:95:5) {
  cause: {
    code: -32000,
    message: 'invalid nonce; got 4, expected 3: invalid sequence: invalid sequence'
  },
  code: 101,
  data: undefined,
  statusCode: undefined,
  request: {
    jsonrpc: '2.0',
    id: '5495e0db-ec41-45a1-adbb-92825c3d274f',
    method: 'eth_sendRawTransaction',
    params: [
      '0xf901680480830f424094a56d38bb39aab745f91cdee3d620a4eef8fa00a080b9010488a090e8000000000000000000000000000000000000000000000000000000000000004000000000000000000000000000000000000000000000000000000000000000c000000000000000000000000000000000000000000000000000000000000000010000000000000000000000000000000000000000000000000000000000000020000000000000000000000000000000000000000000000000000000000000000d53514c5f494e4a454354494f4e0000000000000000000000000000000000000000000000000000000000000000000000000000000000000000000000000000010000000000000000000000000000000000000000000000000000000000000001824673a09b5b4055c56970b158a32d9125fa7b390f205ebb51facf8516415be91944a173a05cac6fe9f75bb3929c5521ea4a07cc7147e1b4fb856ca8a9133fbca4aaaf8a43'
    ]
  }
}

Node.js v18.20.4
